:100000000C943A000C944F000C944F000C944F0049
:100010000C944F000C944F000C944F000C944F0024
:100020000C944F000C944F000C944F000C944F0014
:100030000C944F000C944F000C944F000C944F0004
:100040000C944F000C944F000C944F000C944F00F4
:100050000C944F000C944F000C944F000C944F00E4
:100060000C944F000C944F000C944F000C944F00D4
:100070000C944F0011241FBECFEFD2E0DEBFCDBFE6
:1000800011E0A0E0B1E0E6E6F1E002C005900D92DB
:10009000AA32B107D9F70E9451000C94B1000C9418
:1000A0000000F89484B7877F84BF809160008861E6
:1000B00080936000109260002FEF84E39CE0215059
:1000C00080409040E1F700C000008FEF84B994EFCA
:1000D00097B98AB980E02FEF64EFA1E0B0E00EC0DD
:1000E000923029F1933081F18F5F853108F080E003
:1000F000E7EAF1E63197F1F700C0000025B968B9E9
:100100002BB9E82FF0E0EE0FFF1FE050FF4F90817A
:10011000913031F735B1AD01018002C0440F551F58
:100120000A94E2F7942F9095932395B9DDCF38B1D7
:10013000AD01018002C0440F551F0A94E2F7942FCD
:100140009095932398B9D0CF3BB1AD01018002C007
:10015000440F551F0A94E2F7942F909593239BB96F
:06016000C3CFF894FFCFAD
:100166000100010101020103010401050106010765
:10017600020202040205020602070300030103024B
:0A0186000303030403050306030747
:00000001FF
